{
  "contractName": "ApartmentMarket",
  "abi": [
    {
      "inputs": [],
      "stateMutability": "nonpayable",
      "type": "constructor"
    },
    {
      "anonymous": false,
      "inputs": [
        {
          "indexed": false,
          "internalType": "uint256",
          "name": "sku",
          "type": "uint256"
        }
      ],
      "name": "LogForRent",
      "type": "event"
    },
    {
      "anonymous": false,
      "inputs": [
        {
          "indexed": false,
          "internalType": "uint256",
          "name": "sku",
          "type": "uint256"
        }
      ],
      "name": "LogForSale",
      "type": "event"
    },
    {
      "anonymous": false,
      "inputs": [
        {
          "indexed": false,
          "internalType": "uint256",
          "name": "sku",
          "type": "uint256"
        }
      ],
      "name": "LogRent",
      "type": "event"
    },
    {
      "anonymous": false,
      "inputs": [
        {
          "indexed": true,
          "internalType": "address",
          "name": "previousOwner",
          "type": "address"
        },
        {
          "indexed": true,
          "internalType": "address",
          "name": "newOwner",
          "type": "address"
        }
      ],
      "name": "OwnershipTransferred",
      "type": "event"
    },
    {
      "inputs": [
        {
          "internalType": "uint256",
          "name": "",
          "type": "uint256"
        }
      ],
      "name": "Houses",
      "outputs": [
        {
          "internalType": "string",
          "name": "name",
          "type": "string"
        },
        {
          "internalType": "uint256",
          "name": "sku",
          "type": "uint256"
        },
        {
          "internalType": "uint256",
          "name": "sellprice",
          "type": "uint256"
        },
        {
          "internalType": "uint256",
          "name": "rentprice",
          "type": "uint256"
        },
        {
          "internalType": "enum ApartmentMarket.State",
          "name": "state",
          "type": "uint8"
        },
        {
          "internalType": "address payable",
          "name": "seller",
          "type": "address"
        },
        {
          "internalType": "address payable",
          "name": "houseowner",
          "type": "address"
        },
        {
          "internalType": "address payable",
          "name": "renter",
          "type": "address"
        }
      ],
      "stateMutability": "view",
      "type": "function",
      "constant": true
    },
    {
      "inputs": [],
      "name": "owner",
      "outputs": [
        {
          "internalType": "address",
          "name": "",
          "type": "address"
        }
      ],
      "stateMutability": "view",
      "type": "function",
      "constant": true
    },
    {
      "inputs": [],
      "name": "renounceOwnership",
      "outputs": [],
      "stateMutability": "nonpayable",
      "type": "function"
    },
    {
      "inputs": [],
      "name": "skuCount",
      "outputs": [
        {
          "internalType": "uint256",
          "name": "",
          "type": "uint256"
        }
      ],
      "stateMutability": "view",
      "type": "function",
      "constant": true
    },
    {
      "inputs": [
        {
          "internalType": "address",
          "name": "newOwner",
          "type": "address"
        }
      ],
      "name": "transferOwnership",
      "outputs": [],
      "stateMutability": "nonpayable",
      "type": "function"
    },
    {
      "inputs": [
        {
          "internalType": "string",
          "name": "_name",
          "type": "string"
        },
        {
          "internalType": "uint256",
          "name": "_sellprice",
          "type": "uint256"
        }
      ],
      "name": "addHouse",
      "outputs": [
        {
          "internalType": "bool",
          "name": "",
          "type": "bool"
        }
      ],
      "stateMutability": "nonpayable",
      "type": "function"
    },
    {
      "inputs": [
        {
          "internalType": "uint256",
          "name": "sku",
          "type": "uint256"
        },
        {
          "internalType": "uint256",
          "name": "_rentprice",
          "type": "uint256"
        }
      ],
      "name": "buyItem",
      "outputs": [],
      "stateMutability": "payable",
      "type": "function",
      "payable": true
    },
    {
      "inputs": [
        {
          "internalType": "uint256",
          "name": "sku",
          "type": "uint256"
        }
      ],
      "name": "rentItem",
      "outputs": [],
      "stateMutability": "payable",
      "type": "function",
      "payable": true
    }
  ],
  "bytecode": "0x608060405234801561001057600080fd5b5061002d61002261003a60201b60201c565b61004260201b60201c565b6000600181905550610106565b600033905090565b60008060009054906101000a900473ffffffffffffffffffffffffffffffffffffffff169050816000806101000a81548173ffffffffffffffffffffffffffffffffffffffff021916908373ffffffffffffffffffffffffffffffffffffffff1602179055508173ffffffffffffffffffffffffffffffffffffffff168173ffffffffffffffffffffffffffffffffffffffff167f8be0079c531659141344cd1fd0a4f28419497f9722a3daafe3b4186f6b6457e060405160405180910390a35050565b611688806101156000396000f3fe60806040526004361061007b5760003560e01c80639979c0091161004e5780639979c00914610131578063c88be6631461014d578063d78d38521461018a578063f2fde38b146101a65761007b565b806322702473146100805780632ea8fd72146100ab578063715018a6146100ef5780638da5cb5b14610106575b600080fd5b34801561008c57600080fd5b506100956101cf565b6040516100a2919061132e565b60405180910390f35b3480156100b757600080fd5b506100d260048036038101906100cd91906110a4565b6101d5565b6040516100e6989796959493929190611269565b60405180910390f35b3480156100fb57600080fd5b50610104610312565b005b34801561011257600080fd5b5061011b61039a565b6040516101289190611233565b60405180910390f35b61014b600480360381019061014691906110cd565b6103c3565b005b34801561015957600080fd5b50610174600480360381019061016f9190611050565b6106fb565b604051610181919061124e565b60405180910390f35b6101a4600480360381019061019f91906110a4565b610a13565b005b3480156101b257600080fd5b506101cd60048036038101906101c89190611027565b610d2e565b005b60015481565b60026020528060005260406000206000915090508060000180546101f890611511565b80601f016020809104026020016040519081016040528092919081815260200182805461022490611511565b80156102715780601f1061024657610100808354040283529160200191610271565b820191906000526020600020905b81548152906001019060200180831161025457829003601f168201915b5050505050908060010154908060020154908060030154908060040160009054906101000a900460ff16908060040160019054906101000a900473ffffffffffffffffffffffffffffffffffffffff16908060050160009054906101000a900473ffffffffffffffffffffffffffffffffffffffff16908060060160009054906101000a900473ffffffffffffffffffffffffffffffffffffffff16905088565b61031a610e26565b73ffffffffffffffffffffffffffffffffffffffff1661033861039a565b73ffffffffffffffffffffffffffffffffffffffff161461038e576040517f08c379a00000000000000000000000000000000000000000000000000000000081526004016103859061130e565b60405180910390fd5b6103986000610e2e565b565b60008060009054906101000a900473ffffffffffffffffffffffffffffffffffffffff16905090565b81600060028111156103fe577f4e487b7100000000000000000000000000000000000000000000000000000000600052602160045260246000fd5b6002600083815260200190815260200160002060040160009054906101000a900460ff16600281111561045a577f4e487b7100000000000000000000000000000000000000000000000000000000600052602160045260246000fd5b14801561047d575060006002600083815260200190815260200160002060020154115b61048657600080fd5b8260026000828152602001908152602001600020600201543410156104aa57600080fd5b83336002600087815260200190815260200160002060050160006101000a81548173ffffffffffffffffffffffffffffffffffffffff021916908373ffffffffffffffffffffffffffffffffffffffff16021790555060016002600087815260200190815260200160002060040160006101000a81548160ff02191690836002811115610560577f4e487b7100000000000000000000000000000000000000000000000000000000600052602160045260246000fd5b02179055506002600086815260200190815260200160002060040160019054906101000a900473ffffffffffffffffffffffffffffffffffffffff1673ffffffffffffffffffffffffffffffffffffffff166108fc60026000888152602001908152602001600020600201549081150290604051600060405180830381858888f193505050501580156105f7573d6000803e3d6000fd5b508360026000878152602001908152602001600020600301819055507faff779a2b0f7d6ac7566ca9920c1a4cf550c9691db23499a78d4eac3875b76b285604051610642919061132e565b60405180910390a160006002600083815260200190815260200160002060020154905060008134610673919061141c565b90506002600084815260200190815260200160002060050160009054906101000a900473ffffffffffffffffffffffffffffffffffffffff1673ffffffffffffffffffffffffffffffffffffffff166108fc829081150290604051600060405180830381858888f193505050501580156106f1573d6000803e3d6000fd5b5050505050505050565b6000610705610e26565b73ffffffffffffffffffffffffffffffffffffffff1661072361039a565b73ffffffffffffffffffffffffffffffffffffffff1614610779576040517f08c379a00000000000000000000000000000000000000000000000000000000081526004016107709061130e565b60405180910390fd5b604051806101000160405280848152602001600154815260200183815260200160008152602001600060028111156107da577f4e487b7100000000000000000000000000000000000000000000000000000000600052602160045260246000fd5b81526020013373ffffffffffffffffffffffffffffffffffffffff168152602001600073ffffffffffffffffffffffffffffffffffffffff168152602001600073ffffffffffffffffffffffffffffffffffffffff168152506002600060015481526020019081526020016000206000820151816000019080519060200190610864929190610ef2565b5060208201518160010155604082015181600201556060820151816003015560808201518160040160006101000a81548160ff021916908360028111156108d4577f4e487b7100000000000000000000000000000000000000000000000000000000600052602160045260246000fd5b021790555060a08201518160040160016101000a81548173ffffffffffffffffffffffffffffffffffffffff021916908373ffffffffffffffffffffffffffffffffffffffff16021790555060c08201518160050160006101000a81548173ffffffffffffffffffffffffffffffffffffffff021916908373ffffffffffffffffffffffffffffffffffffffff16021790555060e08201518160060160006101000a81548173ffffffffffffffffffffffffffffffffffffffff021916908373ffffffffffffffffffffffffffffffffffffffff160217905550905050600180546109bf91906113c6565b6001819055507f4627c48065af2a9648cbecdd4b9da340c00e501243cd49a8a71c30c987e8b761600180546109f4919061141c565b604051610a01919061132e565b60405180910390a16001905092915050565b8060016002811115610a4e577f4e487b7100000000000000000000000000000000000000000000000000000000600052602160045260246000fd5b6002600083815260200190815260200160002060040160009054906101000a900460ff166002811115610aaa577f4e487b7100000000000000000000000000000000000000000000000000000000600052602160045260246000fd5b148015610acd575060006002600083815260200190815260200160002060030154115b610ad657600080fd5b816002600082815260200190815260200160002060030154341015610afa57600080fd5b82336002600086815260200190815260200160002060060160006101000a81548173ffffffffffffffffffffffffffffffffffffffff021916908373ffffffffffffffffffffffffffffffffffffffff160217905550600280600086815260200190815260200160002060040160006101000a81548160ff02191690836002811115610baf577f4e487b7100000000000000000000000000000000000000000000000000000000600052602160045260246000fd5b02179055506002600085815260200190815260200160002060050160009054906101000a900473ffffffffffffffffffffffffffffffffffffffff1673ffffffffffffffffffffffffffffffffffffffff166108fc60026000878152602001908152602001600020600301549081150290604051600060405180830381858888f19350505050158015610c46573d6000803e3d6000fd5b507f2955efdea5de66418264d9beb668a636aa1089dd58b746fdadd351df4a8eb31c84604051610c76919061132e565b60405180910390a160006002600083815260200190815260200160002060030154905060008134610ca7919061141c565b90506002600084815260200190815260200160002060060160009054906101000a900473ffffffffffffffffffffffffffffffffffffffff1673ffffffffffffffffffffffffffffffffffffffff166108fc829081150290604051600060405180830381858888f19350505050158015610d25573d6000803e3d6000fd5b50505050505050565b610d36610e26565b73ffffffffffffffffffffffffffffffffffffffff16610d5461039a565b73ffffffffffffffffffffffffffffffffffffffff1614610daa576040517f08c379a0000000000000000000000000000000000000000000000000000000008152600401610da19061130e565b60405180910390fd5b600073ffffffffffffffffffffffffffffffffffffffff168173ffffffffffffffffffffffffffffffffffffffff161415610e1a576040517f08c379a0000000000000000000000000000000000000000000000000000000008152600401610e11906112ee565b60405180910390fd5b610e2381610e2e565b50565b600033905090565b60008060009054906101000a900473ffffffffffffffffffffffffffffffffffffffff169050816000806101000a81548173ffffffffffffffffffffffffffffffffffffffff021916908373ffffffffffffffffffffffffffffffffffffffff1602179055508173ffffffffffffffffffffffffffffffffffffffff168173ffffffffffffffffffffffffffffffffffffffff167f8be0079c531659141344cd1fd0a4f28419497f9722a3daafe3b4186f6b6457e060405160405180910390a35050565b828054610efe90611511565b90600052602060002090601f016020900481019282610f205760008555610f67565b82601f10610f3957805160ff1916838001178555610f67565b82800160010185558215610f67579182015b82811115610f66578251825591602001919060010190610f4b565b5b509050610f749190610f78565b5090565b5b80821115610f91576000816000905550600101610f79565b5090565b6000610fa8610fa38461137a565b611349565b905082815260208101848484011115610fc057600080fd5b610fcb8482856114cf565b509392505050565b600081359050610fe281611624565b92915050565b600082601f830112610ff957600080fd5b8135611009848260208601610f95565b91505092915050565b6000813590506110218161163b565b92915050565b60006020828403121561103957600080fd5b600061104784828501610fd3565b91505092915050565b6000806040838503121561106357600080fd5b600083013567ffffffffffffffff81111561107d57600080fd5b61108985828601610fe8565b925050602061109a85828601611012565b9150509250929050565b6000602082840312156110b657600080fd5b60006110c484828501611012565b91505092915050565b600080604083850312156110e057600080fd5b60006110ee85828601611012565b92505060206110ff85828601611012565b9150509250929050565b61111281611462565b82525050565b61112181611450565b82525050565b61113081611474565b82525050565b61113f816114bd565b82525050565b6000611150826113aa565b61115a81856113b5565b935061116a8185602086016114de565b611173816115ff565b840191505092915050565b600061118b6026836113b5565b91507f4f776e61626c653a206e6577206f776e657220697320746865207a65726f206160008301527f64647265737300000000000000000000000000000000000000000000000000006020830152604082019050919050565b60006111f16020836113b5565b91507f4f776e61626c653a2063616c6c6572206973206e6f7420746865206f776e65726000830152602082019050919050565b61122d816114b3565b82525050565b60006020820190506112486000830184611118565b92915050565b60006020820190506112636000830184611127565b92915050565b6000610100820190508181036000830152611284818b611145565b9050611293602083018a611224565b6112a06040830189611224565b6112ad6060830188611224565b6112ba6080830187611136565b6112c760a0830186611109565b6112d460c0830185611109565b6112e160e0830184611109565b9998505050505050505050565b600060208201905081810360008301526113078161117e565b9050919050565b60006020820190508181036000830152611327816111e4565b9050919050565b60006020820190506113436000830184611224565b92915050565b6000604051905081810181811067ffffffffffffffff821117156113705761136f6115d0565b5b8060405250919050565b600067ffffffffffffffff821115611395576113946115d0565b5b601f19601f8301169050602081019050919050565b600081519050919050565b600082825260208201905092915050565b60006113d1826114b3565b91506113dc836114b3565b9250827fffffffffffffffffffffffffffffffffffffffffffffffffffffffffffffffff0382111561141157611410611543565b5b828201905092915050565b6000611427826114b3565b9150611432836114b3565b92508282101561144557611444611543565b5b828203905092915050565b600061145b82611493565b9050919050565b600061146d82611493565b9050919050565b60008115159050919050565b600081905061148e82611610565b919050565b600073ffffffffffffffffffffffffffffffffffffffff82169050919050565b6000819050919050565b60006114c882611480565b9050919050565b82818337600083830152505050565b60005b838110156114fc5780820151818401526020810190506114e1565b8381111561150b576000848401525b50505050565b6000600282049050600182168061152957607f821691505b6020821081141561153d5761153c6115a1565b5b50919050565b7f4e487b7100000000000000000000000000000000000000000000000000000000600052601160045260246000fd5b7f4e487b7100000000000000000000000000000000000000000000000000000000600052602160045260246000fd5b7f4e487b7100000000000000000000000000000000000000000000000000000000600052602260045260246000fd5b7f4e487b7100000000000000000000000000000000000000000000000000000000600052604160045260246000fd5b6000601f19601f8301169050919050565b6003811061162157611620611572565b5b50565b61162d81611450565b811461163857600080fd5b50565b611644816114b3565b811461164f57600080fd5b5056fea2646970667358221220f894359cae60f169c988801ba55cb9cc36a201d91d91d7004c302b03c5ebb3a664736f6c63430008000033",
  "immutableReferences": {},
  "source": "// SPDX-License-Identifier: MIT\npragma solidity >=0.8.0 <0.9.0;\n\n/// @dev Import Ownable from the OpenZeppelin Contracts library\nimport \"@openzeppelin/contracts/access/Ownable.sol\";\n\n/// @title A sample of Apartment Marketplace\n/// @author Laura Shi\n/// @notice You can use this contract to stimuate on chain apartment purchasing and renting function\ncontract ApartmentMarket is Ownable {\n\n    /// @dev skuCount Number of apartments in the contract\n    uint public skuCount;\n    \n    mapping (uint => House) public Houses;\n    /// <enum State: ForSale, ForRent, Rent>\n    enum State { ForSale, ForRent, Rent }\n    /// @dev struct House: name, sku, sellprice, rentprice, state, houseowner, and renter\n    struct House {\n        string name;\n        uint sku;\n        uint sellprice;\n        uint rentprice;\n        State state;\n        address payable seller;\n        address payable houseowner;\n        address payable renter;\n        /// TypeError: \"send\" and \"transfer\" are only available for objects of type \"address payable\", not \"address\".\n    }\n    \n    /** \n    Events\n    */\n\n    /// @dev <LogForSale event: sku arg>\n    event LogForSale(uint sku);\n    /// @dev <LogForRent event: sku arg>\n    event LogForRent(uint sku);\n    /// @dev <LogRent event: sku arg>\n    event LogRent(uint sku);\n\n    /** \n    Modifiers\n    */\n    /// @dev check if the purchase message contains enough value\n    modifier paidEnough(uint _sku) { \n        require(msg.value >= Houses[_sku].sellprice); \n        _;\n    }\n    \n    /// @dev cehck if the rent message contains enough value\n    modifier rentpaidEnough(uint _sku) {\n        require(msg.value >= Houses[_sku].rentprice);\n        _;\n    }\n    \n    /// @dev refund them after purchase (why it is before, _ checks for logic before func)\n    modifier checkValue(uint _sku) {\n        _;\n        uint _sellprice = Houses[_sku].sellprice;\n        uint amountToRefund = msg.value - _sellprice;\n        Houses[_sku].houseowner.transfer(amountToRefund);\n        /// TypeError: \"send\" and \"transfer\" are only available for objects of type \"address payable\", not \"address\".\n    }\n\n    /// @dev refund them after rent (why it is before, _ checks for logic before func)        \n    modifier checkRent(uint _sku) {\n        _;\n        uint _rentprice = Houses[_sku].rentprice;\n        uint amountToRefund = msg.value - _rentprice;\n        Houses[_sku].renter.transfer(amountToRefund);\n        /// TypeError: \"send\" and \"transfer\" are only available for objects of type \"address payable\", not \"address\".\n    }\n    \n    /// @dev check if the state of the apartment is for sale\n    modifier forSale(uint _sku) {\n        require(Houses[_sku].state == State.ForSale && Houses[_sku].sellprice > 0);\n        _;\n    }\n    /// @dev check if the state of the apartment is for rent\n    modifier forRent(uint _sku) {\n        require(Houses[_sku].state == State.ForRent && Houses[_sku].rentprice > 0);\n        _;\n    }\n\n    /// @dev check if the state of the apartment is rent already\n    modifier Rent(uint _sku) {\n        require(Houses[_sku].state == State.Rent);\n        _;\n    }\n    \n    constructor() public {\n        /// @dev Initialize the sku count to 0. \n        skuCount = 0;\n    }\n    /// @dev here you can set isOnwer modifier to allow only the contract owner to add apartment to the contract, if necessary\n    function addHouse(string memory _name, uint _sellprice) \n    public onlyOwner \n    returns (bool) {\n    // 1. Create a new House and put in array\n    Houses[skuCount] = House({\n    name: _name, \n    sku: skuCount, \n    sellprice: _sellprice, \n    rentprice: 0,\n    state: State.ForSale, \n    seller: payable(msg.sender),\n    houseowner: payable(address(0)),\n    renter: payable(address(0))\n    });\n    // 2. Increment the skuCount by one\n    skuCount = skuCount + 1;\n    // 3. Emit the appropriate event\n    emit LogForSale(skuCount - 1);\n    // 4. return true\n    return true;\n    }\n\n    function buyItem(uint sku, uint _rentprice) public payable forSale(sku) paidEnough(sku) checkValue(sku) {\n    Houses[sku].houseowner = payable(msg.sender);\n    Houses[sku].state = State.ForRent;\n    Houses[sku].seller.transfer(Houses[sku].sellprice);\n    Houses[sku].rentprice = _rentprice;\n    emit LogForRent(sku);\n    }\n\n    function rentItem(uint sku) public payable forRent(sku) rentpaidEnough(sku) checkRent(sku) {\n    Houses[sku].renter = payable(msg.sender);\n    Houses[sku].state = State.Rent;\n    Houses[sku].houseowner.transfer(Houses[sku].rentprice);\n    emit LogRent(sku);\n    }\n}\n",
  "sourcePath": "/Users/laurashi/cs/final-with-test/contracts/ApartmentMarket.sol",
  "compiler": {
    "name": "solc",
    "version": "0.8.0+commit.c7dfd78e.Emscripten.clang"
  },
  "schemaVersion": "3.4.3",
  "updatedAt": "2021-11-21T05:45:04.021Z",
  "networkType": "ethereum",
  "devdoc": {
    "author": "Laura Shi",
    "events": {
      "LogForRent(uint256)": {
        "details": "<LogForRent event: sku arg>"
      },
      "LogForSale(uint256)": {
        "details": "<LogForSale event: sku arg>"
      },
      "LogRent(uint256)": {
        "details": "<LogRent event: sku arg>"
      }
    },
    "kind": "dev",
    "methods": {
      "addHouse(string,uint256)": {
        "details": "here you can set isOnwer modifier to allow only the contract owner to add apartment to the contract, if necessary"
      },
      "owner()": {
        "details": "Returns the address of the current owner."
      },
      "renounceOwnership()": {
        "details": "Leaves the contract without owner. It will not be possible to call `onlyOwner` functions anymore. Can only be called by the current owner. NOTE: Renouncing ownership will leave the contract without an owner, thereby removing any functionality that is only available to the owner."
      },
      "transferOwnership(address)": {
        "details": "Transfers ownership of the contract to a new account (`newOwner`). Can only be called by the current owner."
      }
    },
    "stateVariables": {
      "skuCount": {
        "details": "skuCount Number of apartments in the contract"
      }
    },
    "title": "A sample of Apartment Marketplace",
    "version": 1
  },
  "userdoc": {
    "kind": "user",
    "methods": {},
    "notice": "You can use this contract to stimuate on chain apartment purchasing and renting function",
    "version": 1
  }
}